:1000000060C000006EC000006CC000006AC000004C
:1000100068C0000066C0000064C0000062C000004C
:1000200060C000005EC000005CC000005AC000005C
:1000300058C0000056C0000054C0000052C000006C
:1000400050C000004EC000004CC000004AC000007C
:1000500048C0000046C0000044C0000042C000008C
:1000600040C00000F4C00000C7C000003AC000005B
:1000700038C0000036C0000034C0000032C00000AC
:1000800030C000002EC000002CC000002AC00000BC
:1000900028C0000026C0000024C0000022C00000CC
:1000A00020C000001EC000001CC000004279746522
:1000B0003A200055415254204578616D706C650DB1
:1000C0000A0011241FBECFEFDAE0DEBFCDBF11E082
:1000D000A0E0B1E001C01D92AC36B107E1F70FD04E
:1000E000FFC08ECFCF93DF93EC01FE012196849168
:1000F000882311F04CD0F9CFDF91CF9108951F9351
:1001000080E8809361001092610060E076E980E011
:1001100090E012D083EB90E0E5DF63D08823E9F331
:100120004CD0182F8CEA90E0DDDF812F30D08DE0AD
:100130002ED08AE02CD0F1CF9B01AC01F89460E086
:1001400079E08DE390E0AAD021503040404050400B
:1001500056954795379527953093CD002093CC0041
:1001600082E08093C80088E98093C90086E080938C
:10017000CA001092290180912901809328011092D0
:100180006B0180916B0180936A0178940895282F08
:10019000909128019F5F983208F090E080912901AA
:1001A0008917E1F3E92FF0E0E050FF4F20839093AF
:1001B000280188EB8093C900089590916A0180918D
:1001C0006B019817D1F390916B019F5F903408F009
:1001D00090E0E92FF0E0E65DFE4F808190936B01A7
:1001E000089580916A0190916B01891710F0891B25
:1001F0000895805C891B08951F920F920FB60F928D
:1002000011248F939F93EF93FF93909128018091F6
:100210002901981721F488E98093C9000FC09091B3
:1002200029019F5F983208F090E0E92FF0E0E0505C
:10023000FF4F80818093CE0090932901FF91EF9131
:100240009F918F910F900FBE0F901F9018951F9246
:100250000F920FB60F9211242F938F939F93EF93CA
:10026000FF932091CE0090916A019F5F903408F037
:1002700090E080916B01981739F0E92FF0E0E65D8E
:10028000FE4F208390936A01FF91EF919F918F9190
:100290002F910F900FBE0F901F901895A1E21A2E6C
:1002A000AA1BBB1BFD010DC0AA1FBB1FEE1FFF1F1A
:1002B000A217B307E407F50720F0A21BB30BE40B6A
:1002C000F50B661F771F881F991F1A9469F76095B1
:1002D0007095809590959B01AC01BD01CF0108956B
:0402E000F894FFCFC0
:00000001FF
